:020000040800F2
:1000000000180020A50C0008690200086B02000817
:1000100000000000000000000000000000000000E0
:100020000000000000000000000000006D02000859
:1000300000000000000000006F02000871020008CC
:10004000250D0008250D0008250D0008250D0008C8
:10005000250D0008250D0008250D0008250D0008B8
:10006000250D0008250D0008250D0008250D0008A8
:10007000250D0008250D0008250D0008250D000898
:10008000250D00080000000000000000250D0008FC
:1000900000000000250D0008250D0008250D0008B2
:1000A00000000000250D0008250D0008250D0008A2
:1000B000250D000800000000250D0008250D000892
:1000C000002934D00123002210B488422CD301240B
:1000D0002407A14204D2814202D209011B01F8E7A0
:1000E000E400A14204D2814202D249005B00F8E759
:1000F000884201D3401A1A434C08A04202D3001B85
:100100005C0822438C08A04202D3001B9C082243B7
:10011000CC08A04202D3001BDC082243002803D0F5
:100120001B0901D00909E3E7100010BC704701B5B5
:10013000002000F00BF802BD0029F8D003B5FFF74E
:10014000C1FF0EBC4243891A1847C0467047C046DB
:1001500010B5064C2378002B07D1054B002B02D09D
:10016000044800E000BF0123237010BD0C000020F4
:1001700000000000800D0008044B10B5002B03D0D8
:100180000349044800E000BF10BDC0460000000065
:1001900010000020800D000830B587B001AC14229B
:1001A0000021200000F0BFFD0E4B5A698021C902DA
:1001B0000A435A615B690B400093009B0A4D002281
:1001C0000821280000F00AFD08230193073B029351
:1001D0000023039304932100280000F041FC07B0A2
:1001E00030BDC046001002400004004872B6FEE771
:1001F00010B592B005AC34220021200000F093FD30
:100200001022002101A800F08EFD02230593013B7E
:1002100008930F330993200000F046F800280DD111
:1002200001A807230193002343608360C36000217A
:1002300000F018FB002803D112B010BDFFF7D6FF65
:10024000FFF7D4FF10B500F0D7FBFFF7D1FFFFF7A2
:10025000A3FF0821034800F0C7FC642000F0EEFB78
:10026000F7E7C04600040048FEE7FEE77047704726
:1002700010B500F0D1FB10BD82B00A4B9969012284
:100280001143996199690A400092009ADA698021C4
:1002900049050A43DA61DB690B400193019B02B017
:1002A0007047C0460010024070B582B0041E00D1F5
:1002B0007FE20368DB072BD5B34B5A680C2313404E
:1002C000042B1DD0B04B5A680C231340082B0ED0C2
:1002D0006368012B41D0002B56D1AB4B1A68AB4958
:1002E0000A401A601A68AA490A401A603BE0A64B05
:1002F0005B68C02252021340802252029342E7D12F
:10030000A14B1B689B0303D56368002B00D153E20C
:1003100023689B0777D59C4B5B680C221A4262D0FE
:10032000994B5A680C231340082B53D0E368002BD9
:1003300000D18AE0944A136801210B43136000F056
:1003400077FB0500904B1B689B0775D400F070FB92
:10035000401B0228F6D903202CE28B4A1168802327
:100360005B020B4313606368002B25D000F060FB39
:100370000500854B1B689B03CAD400F059FB401B4A
:100380006428F6D9032015E2052B09D07E4B1A68A4
:100390007E490A401A601A687D490A401A60E2E7FD
:1003A000794B19688022D2020A431A6019688022A8
:1003B00052020A431A60D6E700F03AFB0500724B7E
:1003C0001B689B03A4D500F033FB401B6428F6D9BF
:1003D0000320EFE16C4B5B68C02252021340802285
:1003E00012029342A2D1684B1B689B0703D5E368B6
:1003F000012B00D0E2E164490B68F82293432269A3
:10040000D20013430B6023681B0744D5E369002B1C
:100410002ED05D4A536A01210B43536200F008FB62
:100420000500594B5B6A9B0735D400F001FB401B6C
:100430000228F6D90320BDE153490B68F822934303
:100440002269D20013430B60DDE74F4A1368012194
:100450008B43136000F0ECFA05004B4B1B689B07C5
:10046000D1D500F0E5FA401B0228F6D90320A1E11E
:10047000454A536A01218B43536200F0D9FA0500C3
:10048000414B5B6A9B0706D500F0D2FA401B02285D
:10049000F6D903208EE123685B0700D480E03A4B55
:1004A000DB69DB001DD4384BDA69802149050A433A
:1004B000DA61DB690B400193019B0125354B1B6819
:1004C000DB0510D5A368012B21D0002B36D12E4B94
:1004D0001A6A01218A431A621A6A03318A431A622C
:1004E0001AE00025EAE72B4A116880235B000B43E2
:1004F000136000F09DFA0600264B1B68DB05E1D473
:1005000000F096FA801B6428F6D9032052E11E4AB7
:10051000136A01210B431362A368002B24D000F05F
:1005200087FA0600184B1B6A9B0737D400F080FA45
:10053000801B194B9842F5D903203BE1052B09D0CC
:10054000114B1A6A01218A431A621A6A03318A43DB
:100550001A62E1E70C4B1A6A04210A431A621A6A0A
:1005600003390A431A62D7E700F062FA0600064B25
:100570001B6A9B0712D500F05BFA801B064B984262
:10058000F5D9032016E1C04600100240FFFFFEFF30
:10059000FFFFFBFF0070004088130000012D39D0E1
:1005A0002368DB0610D56369012B39D0053357D199
:1005B000894A536B04218B435363536BF4318B4350
:1005C000A169C9000B43536323689B066ED5824B18
:1005D0005A680C2313400C2B60D07F4B5A680C23B5
:1005E0001340082B53D0236A002B7ED07A4A516BDC
:1005F00080235B020B43536300F01AFA0500764B2D
:100600005B6B9B0352D400F013FA401B0228F6D90F
:100610000320CFE0704AD36970490B40D361BFE734
:100620006D4B5A6B04210A435A635A6B03390A43D0
:100630005A6300F0FDF90500674B5B6B9B0706D41E
:1006400000F0F6F9401B0228F6D90320B2E0624917
:100650004B6BF8229343A269D20013434B63B3E779
:100660005D4B5A6B04210A435A635A6B03398A4320
:100670005A6300F0DDF90500574B5B6B9B07A3D570
:1006800000F0D6F9401B0228F6D9032092E0524B25
:100690005B68C022520213409342A4D14E4B5B6B65
:1006A0009B0303D5236A012B00D089E0636A002BEA
:1006B00000D187E0484A51680C220A40082A60D0DD
:1006C000022B25D0444A136845490B40136000F0C3
:1006D000AFF90400404B1B689B0150D500F0A8F90E
:1006E000001B0228F6D9032064E03B4A536B3D49C6
:1006F0000B40536300F09CF90500374B5B6B9B0389
:10070000D4D500F095F9401B0228F6D9032051E01A
:10071000314A136832490B40136000F089F9050033
:100720002D4B1B689B0106D500F082F9401B022867
:10073000F6D903203EE0284BDA6A0F218A43216B69
:100740000A43DA625A6828490A40E16AA06A01430A
:100750000A435A601968802252040A431A6000F062
:1007600067F904001C4B1B689B0106D400F060F97C
:10077000001B0228F6D903201CE000201AE000200C
:1007800018E0012B20D0144B5A68D86AC0235B02B2
:100790001340A16A8B4219D10F230340216B8B4276
:1007A00016D1F0239B031A40E36A9A4212D100202B
:1007B00000E0012002B070BD0120FBE70120F9E755
:1007C0000120F7E70020F5E70120F3E70120F1E73A
:1007D0000120EFE70120EDE700100240FFFFFFEFEF
:1007E000FFFFFFFEFFFFFEFFFF7FC2FF10B5184BAC
:1007F0005A680C231340082B03D00C2B25D1154825
:1008000010BD910C0F2319401348445C1049C96A6C
:100810000B401249C95CC0235B021A4080235B0273
:100820009A4208D0C0235B029A4209D00C48FFF7D5
:1008300047FC6043E4E70A48FFF742FC6043DFE718
:100840000448FFF73DFC6043DAE70548D8E7C046B7
:1008500000100240006CDC02A80D0008980D000892
:1008600000127A0070B504000D00002800D186E067
:10087000474B1A68012313408B420AD244490B6844
:10088000012293432B430B600B681A40AA4200D00D
:1008900077E023689A070ED55B0705D53D4A516876
:1008A000E023DB000B4353603A4A5368F0218B434B
:1008B000A1680B4353602368DB0735D56368012BC0
:1008C00009D0022B24D0032B28D0324A1268920779
:1008D00005D4012052E02F4A1268920353D52D49C6
:1008E0004A680320824313434B6000F0A1F80600DE
:1008F000284B5B680C221A4063689B009A4213D015
:1009000000F096F8801B244B9842F1D9032035E083
:10091000204A12689201E2D401202FE01D4A526B56
:100920009203DCD4012029E0194B1A6801231340FB
:10093000AB4209D916490B68012293432B430B6044
:100940000B681A40AA4220D123685B0706D5114ADA
:10095000536812490B40E1680B435360FFF746FFB1
:100960000C4B5A6812090F2313400D4AD35CD84030
:100970000C4B1860032000F017F8002070BD012018
:10098000FCE70120FAE70120F8E70120F6E7C0467E
:10099000002002400010024088130000FFF8FFFF13
:1009A000B80D00080800002010B504000F4B19789E
:1009B000FA208000FFF784FB01000D4B1868FFF759
:1009C0007FFB00F069F900280DD1032C01D901202B
:1009D0000AE0013000222100404200F059F9054BA5
:1009E0001C60002000E0012010BDC0460000002077
:1009F000080000200400002010B5064A13681021EA
:100A00000B4313600320FFF7CFFFFFF735FC0020F7
:100A100010BDC04600200240034A1168034B1B78FA
:100A20005B1813607047C0462800002000000020BB
:100A3000014B18687047C0462800002070B50400BC
:100A4000FFF7F6FF0500631C02D0044B1B78E41887
:100A5000FFF7EEFF401BA042FAD370BD000000205C
:100A6000F0B583B0002356E086685F000324BC40E5
:100A7000A643CC68BC4034438460446894434E68C9
:100A80003609012232409A402243426053E0DE0898
:100A90000836B600375805321A4092000F249440A9
:100AA000A7430C69944022003A43325056E0022694
:100AB00000E00026A64034003C4302329200424E41
:100AC0009451424A9768EA433E00AE434C68E402C0
:100AD00001D53E002E433D4CA660E7683E0016401F
:100AE0004C68A40201D53E002E43384CE66067688E
:100AF0003E0016404C68A40301D53E002E43334C03
:100B00006660266832404C68E40301D52A0032430F
:100B10002E4C226001330C682200DA4051D00122B1
:100B20009A40250015401442F4D04E680324344006
:100B3000013C012C98D94C6803222240032A08D09A
:100B4000C4685E000322B24094438A68B2402243E4
:100B5000C2604C6803222240022A98D004685E00DA
:100B600003221700B740BC434F683A40B2402243CB
:100B700002604C68C02292021442CBD0144CA66989
:100B800001221643A661A46922400192019A9A08A3
:100B9000941CA4000C4EA75903241C40A4000F264B
:100BA000A640B7439026F605B04282D0094EB04227
:100BB00005D0094EB04200D179E705267AE7012633
:100BC00078E703B0F0BDC0460000014000040140DA
:100BD000001002400004004800080048002A01D02C
:100BE000816170478162FCE7426913000B401B047E
:100BF00091430B438361704770B5002811DB830874
:100C0000134DC0339B005C5903221040C000FC32DE
:100C100016008640B44389010A40824022435A515B
:100C200070BD0F230340083B9B0806339B00094A15
:100C3000944663445C6803221040C000FC321500F7
:100C40008540AC4389010A40824022435A60E7E76D
:100C500000E100E000ED00E0013880235B049842F1
:100C60000FD2094A50600948036A1B021B0AC021BF
:100C700009060B43036200239360073313600020CF
:100C800070470120FCE7C04610E000E000ED00E006
:100C900010B5FFF7B1FF10BD10B5FFF7DDFF10BDB8
:100CA0007047000013488546FFF7FAFF12480168B5
:100CB000090E124A914205D11148124901601248A9
:100CC0001249016012481349134A002302E0D45824
:100CD000C4500433C4188C42F9D3104A104C00237A
:100CE00001E013600432A242FBD300F025F8FFF7C5
:100CF000A9FAFEE700180020040000001F00000011
:100D00001810024001000000000001400000000037
:100D1000000000200C000020D00D00080C00002076
:100D20002C000020FEE703008218934200D1704798
:100D300019700133F9E7000070B500260C4C0D4D19
:100D4000641BA410A64209D1002600F019F80A4C31
:100D50000A4D641BA410A64205D170BDB300EB5828
:100D600098470136EEE7B300EB5898470136F2E7B3
:100D7000C80D0008C80D0008CC0D0008C80D0008FB
:100D8000F8B5C046F8BC08BC9E467047F8B5C046EA
:080D9000F8BC08BC9E46704748
:100D98000102030405060708090A0B0C0D0E0F10C3
:100DA80002030405060708090A0B0C0D0E0F1010A4
:100DB8000000000000000000010203040607080903
:040DC80079010008A5
:040DCC0051010008C9
:0C0DD000010000000400000000127A0086
:0400000508000CA53E
:00000001FF
